:020000040800F2
:1000000000C00020211C0008811B0008831B000881
:10001000851B0008871B0008891B000800000000E2
:100020000000000000000000000000008B1B000822
:100030008D1B0008000000008F1B0008911B0008AA
:10004000691C0008691C0008691C0008691C00087C
:10005000691C0008691C0008691C0008691C00086C
:10006000691C0008691C0008691C0008691C00085C
:10007000691C0008691C0008691C0008691C00084C
:10008000691C0008691C0008691C0008691C00083C
:10009000691C0008691C0008691C0008691C00082C
:1000A000691C0008691C0008691C0008691C00081C
:1000B000691C0008691C0008691C0008691C00080C
:1000C000691C0008691C0008691C0008691C0008FC
:1000D000691C0008691C0008691C0008691C0008EC
:1000E000691C0008691C0008691C0008691C0008DC
:1000F000691C0008691C0008691C0008691C0008CC
:10010000691C0008691C0008691C0008691C0008BB
:10011000691C0008691C0008691C0008691C0008AB
:10012000691C0008691C0008691C0008691C00089B
:1001300000000000000000000000000000000000BF
:1001400000000000000000000000000000000000AF
:10015000000000000000000000000000000000009F
:10016000000000000000000000000000000000008F
:10017000000000000000000000000000000000007F
:10018000000000000000000000000000000000006F
:10019000000000000000000000000000000000005F
:1001A000000000000000000000000000000000004F
:1001B000000000000000000000000000000000003F
:1001C000000000000000000000000000000000002F
:1001D000000000000000000000000000000000001F
:0401E0005FF8E0F1F3
:1001E40010B5054C237833B9044B13B10448AFF36D
:1001F40000800123237010BD3C0400200000000097
:10020400381E000808B5034B1BB103490348AFF37C
:10021400008008BD0000000040040020381E0008D3
:1002240010B504460E4B18784FF47A73B3FBF0F311
:100234000C4A1068B0FBF3F000F0E2F968B90F2C37
:1002440001D901200AE0002221464FF0FF3000F0DE
:100254009FF9054B1C60002000E0012010BD00BF89
:1002640000000020080000200400002008B5074A10
:10027400136843F010031360032000F077F90020A3
:10028400FFF7CEFF01F04EFB002008BD0020024026
:10029400034A1168034B1B780B441360704700BF7B
:1002A4005804002000000020014B1868704700BF6C
:1002B4005804002030B482B00022019290F8242027
:1002C400012A00F091800346012280F824204A6824
:1002D400062A2DD80468606B02EB8202053A4FF0BF
:1002E4001F0C0CFA02FC20EA0C000D6805FA02F25D
:1002F400024362630A68092A3AD91C68E06802EB7F
:1003040042021E3A4FF0070C0CFA02FC20EA0C00E1
:100314008D6805FA02F20243E2600A68103A012A83
:1003240036D90020002283F8242002B030BC704764
:100334000C2A0ED80568286B02EB8202233A1F248C
:10034400944020EA04000C6804FA02F202432A638F
:10035400D0E70568E86A02EB8202413A1F24944020
:1003640020EA04000C6804FA02F20243EA62C1E7DC
:100374001C68206902EB42024FF0070C0CFA02FCE5
:1003840020EA0C008D6805FA02F202432261C4E7F8
:100394001A681648824205D09A6A42F020029A628C
:1003A4000120BFE7906810F4000F1BD1906840F45F
:1003B400000090600A68102A01D00020B2E70C4ABD
:1003C40012680C49A1FB0212920C02EB8202520049
:1003D400019202E0019A013A0192019A002AF9D1AC
:1003E40000209FE700209DE702209EE700240140B3
:1003F4000800002083DE1B4338B503689A6812F0B6
:10040400010F01D1002038BD04469A6822F0010290
:100414009A60FFF749FF054623689B6813F0010FB4
:100424000ED0FFF741FF431B022BF5D9A36A43F01B
:100434001003A362E36A43F00103E3620120E2E7ED
:100444000020E0E7002800F0888070B50446836A45
:10045400002B52D02046FFF7CFFFA36A13F01003FE
:1004640075D1002873D1A26A22F4885222F00202C4
:1004740042F00202A2626268266839498E4242D082
:10048400E1690A43217B42EA4102A568B5F5807F10
:1004940002D0012D3ED01D4694F814C0BCF1010FCA
:1004A4003BD0716821F46941294371602568AE68C5
:1004B4002C4931401143A960A168B1F5807F01D076
:1004C400012902D12369013B1B052568E96A21F44E
:1004D40070010B43EB6223689968234B0B409A42EB
:1004E4002CD0A36A23F0120343F01003A362E36A3F
:1004F40043F00103E36201202EE0C36280F824305C
:1005040001F030FAA6E7E169B1F5402FB9D14FF413
:100514000021B6E74FF48075BEE731B9A16901390E
:1005240045EA413141F40065BBE7A16A41F020018D
:10053400A162E16A41F00101E162B2E70023E362F2
:10054400A36A23F0030343F00103A36204E0A36A54
:1005540043F01003A362012070BD0120704700BF67
:10056400003C0140FDF7E1FFFE0E1FFF074AD36880
:1005740023F4E0631B041B0C000200F4E06003435B
:1005840043F0BF6343F40033D360704700ED00E0F1
:1005940000B5194BDB68C3F30223C3F1070CBCF1AC
:1005A400040F28BF4FF0040C03F1040EBEF1060F34
:1005B40018D9033B4FF0FF3E0EFA0CFC21EA0C0164
:1005C40099400EFA03F322EA0303194300280BDBD4
:1005D4000901C9B200F1604000F5614080F80013E0
:1005E4005DF804FB0023E5E700F00F000901C9B240
:1005F400024B1954F4E700BF00ED00E014ED00E0F5
:100604000138B0F1807F0BD24FF0E0235861054AE6
:10061400F02182F823100020986107221A617047A4
:100624000120704700ED00E070B582B00024A446BC
:10063400B0E0874DAA4210D007D9864DAA420CD00B
:1006440005F58035AA4208D013E0A5F58015AA4225
:1006540003D005F57025AA4207D18A68002A62D022
:10066400012A5BD04361082403E0A5F58015AA4262
:10067400F3D0BEF1FF0F58D80646BEF1FF0F56D88F
:100684004FEA8C0233680F25954023EA050304FAE8
:1006940002F2134333604B6813F0805F78D06E4BE3
:1006A4009A6942F001029A619B6903F00103019384
:1006B400019B4FEA9C02951C684B53F825600CF093
:1006C40003039D000F23AB4026EA0306644B9842C4
:1006D40033D003F58063984200F0988003F580637B
:1006E400984200F0958003F58063984200F0928070
:1006F40003F58063984200F08F8003F5806398428D
:1007040019D006231AE0CC68B3E7CC680434B0E708
:10071400CC680834ADE7CC680C34AAE7036108243C
:10072400A7E70024A5E70424A3E7061DA5E7ACF189
:1007340008029200A6E7052300E00023AB40334300
:100744000232464D45F822304B6813F4803F65D0A1
:10075400444A136843EA0E0313604B6813F4003FE2
:1007640062D0404A536843EA0E0353604B6813F463
:10077400801F5FD03B4A936843EA0E0393604B6843
:1007840013F4001F5CD0374AD36843EA0E03D360E6
:100794000CF1010C0A6832FA0CF357D0012303FA66
:1007A4000CF302EA030E33EA0202F1D14A68122A78
:1007B4003FF63FAF122A3FF65CAF01A555F822F091
:1007C4005F0600080B070008150700082707000844
:1007D4007706000877060008770600087706000801
:1007E40077060008770600087706000877060008F1
:1007F40077060008770600087706000877060008E1
:10080400770600080F0700081B070008012395E777
:10081400022393E7032391E704238FE7114A136824
:1008240023EA0E03136098E70E4A536823EA0E0383
:1008340053609BE70B4A936823EA0E0393609EE799
:10084400084AD36823EA0E03D360A1E702B070BD5F
:10085400000022100000311000100240000001408E
:1008640000080140000401400AB101617047090415
:1008740001617047002800F08A8038B5044690F87A
:100884003530002B54D0022284F835202168CB69FE
:1008940023F47B6323F00F03CB6123681A6263693B
:1008A40093426CD0E368002B47D11025A368202B1A
:1008B40000D86D002368374A934240D0364A9342A9
:1008C40041D000F08BFA2369B3F5007F3FD0B0FB31
:1008D400F5F000EB800043006069B3FBF0F30533EF
:1008E4002E4AA2FB0323C3F3C002C2EBD3035B086B
:1008F40011029A1EFD2A44D822690A43216813432F
:100904000B622168CB6923F47B6323F00F036268D5
:10091400A0680243E0680243A0690243134343F41E
:100924000063CB610020A063012384F8353038BD17
:1009340080F8343001F068F8A5E72025B6E70420F4
:1009440000F0EAFBBFE7082000F0E6FBBBE7E36842
:1009540053B1AD00B0FBF5F000EB800043006069DB
:10096400B3FBF0F30533BBE7ED00B0FBF5F000EBB0
:10097400800043006069B3FBF0F30533B0E7002166
:10098400B7E7A36B43F01003A3630120CFE7012073
:10099400704700BF00380040003C0040CDCCCCCCB8
:1009A40082B0084B1B68084AA2FB03235B0A00FBC6
:1009B40003F3019300BF019B5A1E0192002BF9D14E
:1009C40002B0704708000020D34D6210002800F0E8
:1009D400F18170B582B00446036813F0010F2CD086
:1009E400994B5B6803F00C03042B1DD0964B5B689A
:1009F40003F00C03082B12D06368B3F5803F41D099
:100A0400002B55D103F1804303F504331A6822F413
:100A140080321A601A6822F480221A6037E08A4B06
:100A24005B6813F4803FE7D0874B1B6813F4003FE7
:100A340003D06368002B00F0BF81236813F0020F1A
:100A440075D0814B5B6813F00C0F5FD07E4B5B68F5
:100A540003F00C03082B54D02369002B00F08A8088
:100A64007A4B01221A60FFF71FFC0546764B1B6880
:100A740013F0020F75D1FFF717FC401B0228F5D9BC
:100A840003209EE1704A136843F480331360636863
:100A940043B3FFF709FC05466B4B1B6813F4003F97
:100AA400CBD1FFF701FC401B6428F5D9032088E172
:100AB400B3F5A02F09D0644B1A6822F480321A606F
:100AC4001A6822F480221A60E1E703F18043A3F557
:100AD4003C331A6842F480221A601A6842F4803265
:100AE4001A60D4E7FFF7E0FB0546574B1B6813F485
:100AF400003FA2D0FFF7D8FB401B6428F5D90320A0
:100B04005FE1514B5B6813F4803FA5D14E4B1B68EA
:100B140013F0020F03D02369012B40F04F814A4A9E
:100B2400136823F0F803616943EAC103136023687F
:100B340013F0080F33D0A369002B5CD0434B012280
:100B4400C3F88024FFF7B0FB05463F4B5B6A13F004
:100B5400020F21D1FFF7A8FB401B0228F5D903207F
:100B64002FE1394A136823F0F803616943EAC103AA
:100B74001360DCE7354B00221A60FFF795FB05464E
:100B8400314B1B6813F0020FD1D0FFF78DFB401BD4
:100B94000228F5D9032014E10120FFF701FF23689F
:100BA40013F0040F00F09680274BDB6913F0805F8D
:100BB40034D1254BDA6942F08052DA61DB6903F003
:100BC40080530193019B0125214B1B6813F4807F03
:100BD40026D0E368012B3DD0002B53D103F1804391
:100BE40003F504331A6A22F001021A621A6A22F027
:100BF40004021A6233E0154B0022C3F88024FFF785
:100C040053FB0546104B5B6A13F0020FC7D0FFF786
:100C14004BFB401B0228F5D90320D2E00025D3E783
:100C24000B4A136843F480731360FFF73DFB0646D9
:100C3400074B1B6813F4807FCBD1FFF735FB801B78
:100C44006428F5D90320BCE00010024000004242B1
:100C5400007000405F4A136A43F001031362E368C3
:100C640033B3FFF721FB06465A4B1B6A13F0020FFE
:100C74002FD1FFF719FB801B41F288339842F3D937
:100C840003209EE0052B09D0524B1A6A22F0010280
:100C94001A621A6A22F004021A62E0E74D4B1A6AD9
:100CA40042F004021A621A6A42F001021A62D6E79A
:100CB400FFF7FAFA0646474B1B6A13F0020F08D0F7
:100CC400FFF7F2FA801B41F288339842F3D90320EC
:100CD40077E0E5B9E369002B72D03E4A526802F02E
:100CE4000C02082A56D0022B17D03B4B00221A665E
:100CF400FFF7DAFA0446374B1B6813F0007F47D03E
:100D0400FFF7D2FA001B0228F5D9032059E0314A33
:100D1400D36923F08053D361DCE72F4B00221A669A
:100D2400FFF7C2FA05462B4B1B6813F0007F06D071
:100D3400FFF7BAFA401B0228F5D9032041E0236AE1
:100D4400B3F5803F1AD023494B6823F47413226A05
:100D5400606A024313434B601F4B01221A66FFF77C
:100D6400A3FA04461B4B1B6813F0007F0ED1FFF758
:100D74009BFA001B0228F5D9032022E0154A536888
:100D840023F40033A1680B435360DCE7002018E030
:100D9400002016E0012B16D00E4B5B6803F4803163
:100DA400226A914211D103F47013626A93420ED104
:100DB400002006E001207047012002E0012000E04D
:100DC400002002B070BD0120FBE70120F9E70120FB
:100DD400F7E700BF001002400000424286B0164B05
:100DE4000FCB0DF1180C0CE90F0040F20123ADF804
:100DF4000430124B5B6803F00C02082A02D010483E
:100E040006B07047C3F38342624412F8100C13F423
:100E1400803F0CD0094B5B68C3F34043634413F831
:100E2400143C074A02FB00F0B0FBF3F0E8E7054B83
:100E340003FB00F0E4E700BF501E0008001002406E
:100E440000127A0000093D00002800F0A08070B56F
:100E54000D460446524B1B6803F007038B420BD22A
:100E64004F4A136823F007030B431360136803F01E
:100E740007038B4240F08D80236813F0020F17D0D4
:100E840013F0040F04D0474A536843F4E0635360FB
:100E9400236813F0080F04D0424A536843F46053A4
:100EA4005360404A536823F0F003A1680B43536036
:100EB400236813F0010F31D06368012B20D0022B7B
:100EC40025D0384A126812F0020F64D035494A68B6
:100ED40022F0030213434B60FFF7E6F90646314B59
:100EE4005B6803F00C036268B3EB820F16D0FFF764
:100EF400DBF9801B41F288339842F0D9032045E0A6
:100F0400284A126812F4003FE0D101203EE0254A4D
:100F1400126812F0007FD9D1012037E0204B1B6802
:100F240003F00703AB420AD91D4A136823F00703F1
:100F34002B431360136803F00703AB422DD12368DE
:100F440013F0040F06D0174A536823F4E063E168F2
:100F54000B435360236813F0080F07D0114A5368FA
:100F640023F46053216943EAC1035360FFF736FF5A
:100F74000C4B5B68C3F303130B4AD35CD8400B4B95
:100F840018600B4B1868FFF74BF9002070BD012067
:100F940070470120FAE70120F8E70120F6E700BFD7
:100FA4000020024000100240641E000808000020D7
:100FB40004000020014B1868704700BF080000209F
:100FC40008B5FFF7F7FF044B5B68C3F30223034A3A
:100FD400D35CD84008BD00BF00100240741E000856
:100FE40008B5FFF7E7FF044B5B68C3F3C223034A6A
:100FF400D35CD84008BD00BF00100240741E000836
:1010040070B582B00446036813F0010F36D03F4B2D
:10101400DB6913F0805F49D13C4BDA6942F08052BE
:10102400DA61DB6903F080530193019B0125384B9E
:101034001B6813F4807F3BD0344B1B6A13F440735A
:1010440013D0626802F440729A420ED02F4A136A97
:1010540023F440702F490126C1F840640026C1F8EA
:101064004064106213F0010F36D1284A136A23F446
:10107400407361680B431362002D3ED1236813F063
:10108400020F06D0214A536823F44043A1680B435E
:101094005360236813F0100F34D01C4A536823F4B0
:1010A400800361690B43536000202CE00025BEE7F8
:1010B400174A136843F480731360FFF7F5F8064684
:1010C400134B1B6813F4807FB6D1FFF7EDF8801B38
:1010D4006428F5D9032016E0FFF7E6F806460B4B23
:1010E4001B6A13F0020FC0D1FFF7DEF8801B41F238
:1010F40088339842F3D9032005E0D36923F0805361
:10110400D361BBE7002002B070BD00BF00100240F5
:10111400007000400000424200B587B084463E4B58
:101124000FCB0DF1180E0EE90F0040F20123ADF8BC
:1011340004300CF1FF300F2866D8DFE800F0385A8D
:101144006532656565356565656565656508334B57
:101154005A68186810F0807057D0C2F3834306A908
:101164000B4413F8100C12F4803F16D02B4B5B6821
:10117400C3F340430B4413F8142C294BB3FBF2F391
:1011840003FB00F0254B5B6813F4800F3DD1400056
:10119400244BA3FB0030400837E0234B03FB00F053
:1011A400F0E7FFF71BFE30E0FFF718FE2DE01B4BC6
:1011B4001B6A40F202321A40B2F5817F28D003F450
:1011C4004073B3F5007F04D0B3F5407F09D000200D
:1011D4001BE0124A526A12F0020FF5D049F6404061
:1011E40013E00E4B186810F400300ED04FF2244078
:1011F4000BE0FFF7F5FE094B5B68C3F38133013362
:101204005B00B0FBF3F000E0002007B05DF804FBE6
:101214004FF40040F9E700BF501E000800100240E0
:1012240000127A00ABAAAAAA00093D002DE9F041F8
:101234000646884617461D463468A46838EA0403FF
:101244000CBF4FF0010C4FF0000CBC4537D0B5F18A
:10125400FF3FF1D0FFF728F8069BC01AA84201D23D
:10126400002DE9D13268536823F0E00353607368BA
:10127400B3F5827F0BD0B36AB3F5005F14D00123BA
:1012840086F85130002386F85030032018E0B36804
:10129400B3F5004F02D0B3F5806FECD13268136818
:1012A40023F040031360E6E73268136823F4005325
:1012B40013603268136843F400531360DFE70020BF
:1012C400BDE8F08110B582B004460B4600920022BE
:1012D4008021FFF7ABFF08B902B010BD636D43F086
:1012E400200363650320F7E7002839D010B50446CE
:1012F4000023836290F85130002B2CD0022384F811
:1013040051302268136823F0400313606368A268B5
:101314001343E26813432269134362691343A269C6
:1013240002F400721343E2691343226A1343A16A6D
:1013340022680B431360638B226803F00403536039
:101344002268D36923F40063D3610020606501231C
:1013540084F8513010BD80F8503000F099FBCDE78F
:10136400012070472DE9F04383B01F460A9D90F891
:101374005030012B00F01081044688469146012329
:1013840080F85030FEF790FF064694F85130DBB2F7
:101394006268012B0AD0B2F5827F40F0E380A26834
:1013A400002A40F0E980042B40F0E880B8F1000FF7
:1013B40000F0E680B9F1000F00F0E480002F00F0A7
:1013C400E38094F85130DBB2042B02D0052384F877
:1013D400513000236365C4F83890E787A787C4F8C1
:1013E4003080E786A7862364636423681A6812F052
:1013F400400F03D11A6842F040021A60E368B3F563
:10140400006F11D063680BB1012F0BD1226B2368DD
:1014140012781A73236B01332363E38E9BB2013B6F
:101424009BB2E38601276BE063680BB1012F0BD1FC
:10143400226B23681288DA60236B02332363E38E02
:101444009BB2013B9BB2E38601271CE023689A68A8
:1014540012F0010F0ED0E28F92B25AB1DA68A36B88
:101464001A80A36B0233A363E38F9BB2013B9BB24D
:10147400E3870127FEF718FF801BA84203D3B5F1C9
:10148400FF3F40F08380E38E9BB21BB9E38F9BB296
:10149400002B53D023689A6812F0020FD6D0E28E44
:1014A40092B2002AD2D0002FD0D0226B1288DA60F8
:1014B400236B02332363E38E9BB2013B9BB2E3862F
:1014C4000027C3E723689A6812F0010F0ED0E28F59
:1014D40092B25AB1DA68A36B1A70A36B0133A36397
:1014E400E38F9BB2013B9BB2E3870127FEF7DCFE4F
:1014F400831BAB4202D3B5F1FF3F49D1002D49D044
:10150400E38E9BB213B9E38F9BB2BBB123689A6895
:1015140012F0020FD6D0E28E92B2002AD2D0002F5F
:10152400D0D0226B12781A73236B01332363E38EBA
:101534009BB2013B9BB2E3860027C3E732462946B0
:101544002046FFF7BFFE48B9A36863B90193236837
:10155400DA6801929B680193019B04E02023636590
:10156400012000E00220012384F85130002384F894
:10157400503003B0BDE8F0830220F4E70220F2E724
:101584000120F0E70120EEE70120ECE70320EAE781
:101594000320E8E70320E6E70220EAE738B504463B
:1015A4000268136923F44053C1680B4313618368D1
:1015B4000269134342691A430168CB6823F4B053A8
:1015C40023F00C031343CB600268536923F4407384
:1015D40081690B4353610268214B9A421FD0FFF784
:1015E400EFFC00EB800202EB820263689B00B2FB1B
:1015F400F3F21C48A0FB02314909642303FB1123C5
:101604001B013233A0FB03235B0903F0F00202EB5E
:10161400011203F00F03216813448B6038BDFFF7F8
:10162400DFFC00EB800000EB800063689B00B0FBF4
:10163400F3F00C4DA5FB00325109642303FB1103A5
:101644001B013233A5FB03235B0903F0F00202EB19
:10165400011203F00F03216813448B60DEE700BF1F
:10166400003801401F85EB5158B310B5044690F87B
:1016740039300BB3242384F839302268D36823F437
:101684000053D3602046FFF789FF2268136923F4CF
:10169400904313612268536923F02A03536122683B
:1016A400D36843F40053D3600020E063202384F81C
:1016B400393084F83A3010BD80F8383000F022FA1E
:1016C400D8E701207047000070B588B00024049466
:1016D400059406940794314B9A6942F020029A616A
:1016E4009A6902F020020092009A9A6942F010026C
:1016F4009A619A6902F010020192019A9A6942F081
:1017040004029A619A6902F004020292029A9A69A6
:1017140042F008029A619B6903F008030393039B58
:101724001F4D22464FF464712846FFF79DF80F239E
:1017340004930326059604A92846FEF775FF04962C
:101744000596184E04A93046FEF76EFF4FF46473F5
:1017540004930123059306940223079304A92846BE
:10176400FEF762FF4FF4E05304930594069404A932
:101774003046FEF759FF042304930594069404A904
:101784000948FEF751FF4FF47873049305940694C7
:1017940004A90648FEF748FF08B070BD00100240D7
:1017A400001001400008014000140140000C0140F9
:1017B40070B584B000250195029503950C4C0D4B32
:1017C4002360A560257325754FF46023E36165608C
:1017D400012626612046FEF735FE0F23019302966B
:1017E400039501A92046FEF765FD04B070BD00BF56
:1017F4005C0400200024014008B50848084B03603D
:101804004FF40072426000238360C36002614BF6B0
:10181400803242618361FFF72DF808BD8C040020FB
:101824000038004008B50C480C4B03604FF4827339
:10183400436000238360C360036143614FF400721B
:1018440082613022C2610362436283620A23C362FB
:10185400FFF74AFD08BD00BFC80400200030014066
:1018640008B50848084B03604FF4E1334360002394
:101874008360C36003610C2242618361C361FFF72B
:10188400F3FE08BD20050020004C004030B597B0A1
:10189400282200210CA800F00BFA002407940894D5
:1018A40009940A940B940194029403940494059467
:1018B400069401220C924FF480330D93109202256A
:1018C400139514934FF4E01315930CA8FFF77EF8C7
:1018D4000F230793089509944FF480630A930B949C
:1018E400294607A8FFF7B0FA062301934FF40043F3
:1018F4000393049401A8FFF783FB17B030BD08B528
:10190400012000F06DF9FEF7B1FCFFF7BFFFFFF710
:10191400DBFEFFF74DFFFFF76FFFFFF783FFFFF7D6
:101924009FFFFEE782B00D4B9A6942F001029A6173
:101934009A6902F001020092009ADA6942F0805238
:10194400DA61DB6903F080530193019B044A536815
:1019540023F0E063536002B0704700BF0010024000
:101964000000014010B588B000230493059306934A
:1019740007930268204B9A4201D008B010BD03F5CA
:101984006C439A6942F400729A619A6902F4007293
:101994000092009A9A6942F004029A619A6902F0EC
:1019A40004020192019A9A6942F010029A619A69BA
:1019B40002F010020292029A9A6942F008029A61B5
:1019C4009B6903F008030393039B102304930324EC
:1019D40005940DEB03010948FEF726FE202304932A
:1019E400059404A90648FEF71FFE0494059404A96F
:1019F4000448FEF719FEC0E7002401400008014036
:101A040000100140000C014010B588B0002304937D
:101A140005930693079302681A4B9A4201D008B0C3
:101A240010BD03F5EC33DA6942F48042DA61DA6915
:101A340002F480420192019A9A6942F008029A6182
:101A44009A6902F008020292029A9A6942F010021C
:101A54009A619B6903F010030393039B4FF4304393
:101A6400049302240594079404A90748FEF7DCFDB7
:101A7400402304930594079404A90448FEF7D4FD75
:101A8400CDE700BF00380040000C014000100140C9
:101A940010B586B000230293039304930593026860
:101AA400164B9A4201D006B010BD03F560439A6903
:101AB40042F480529A619A6902F480520092009A28
:101AC4009A6942F004029A619B6903F0040301934A
:101AD400019BA02302930223039303230593084C41
:101AE40002A92046FEF7A0FD40230293002303939E
:101AF400049302A92046FEF797FDD4E70030014085
:101B04000008014010B586B00023029303930493A8
:101B140005930268174B9A4201D006B010BD03F535
:101B2400E233DA6942F40022DA61DA6902F400226B
:101B34000092009A9A6942F010029A619B6903F03C
:101B440010030193019B4FF48063029302230393D8
:101B540003230593084C02A92046FEF765FD4FF4C4
:101B64000063029300230393049302A92046FEF723
:101B74005BFDD2E7004C0040001001407047FEE7D7
:101B8400FEE7FEE7FEE770477047704708B5FEF7CB
:101B94007FFB08BD0F4B1A6842F001021A605968B6
:101BA4000D4A0A405A601A6822F0847222F4803284
:101BB4001A601A6822F480221A605A6822F4FE021B
:101BC4005A604FF41F029A60044B4FF000629A600F
:101BD400704700BF001002400000FFF800ED00E075
:101BE40000B585B006238DF80C3098408DF80D00B3
:101BF40041F288330093032302AA03A90648FFF79E
:101C0400B1FB9DF8093003F00F039DF80A0040EA88
:101C1400032005B05DF804FBC8040020002103E0A4
:101C24000B4B5B58435004310A480B4B42189A4201
:101C3400F6D30A4A02E0002342F8043B084B9A42D6
:101C4400F9D3FFF7A7FF00F00FF8FFF758FE70472E
:101C54008C1E0008000000203C0400203C040020EE
:101C640064050020FEE7000070B50D4E0D4D761B97
:101C7400B61006D0002455F8043B01349847A64218
:101C8400F9D1094E094D00F0D5F8761BB61006D0EF
:101C9400002455F8043B01349847A642F9D170BD9D
:101CA400801E0008801E0008881E0008801E000890
:101CB400830730B548D0541E002A3FD00346CAB229
:101CC40001E0013C3AD303F8012B9D07F9D1032C21
:101CD4002DD9CDB245EA05250F2C45EA054536D95F
:101CE400A4F1100222F00F0C03F1200EE6444FEA97
:101CF400121C03F1100242E9045542E90255103264
:101D04007245F8D10CF1010214F00C0F03EB02122E
:101D140004F00F0C13D0ACF1040323F003030433D9
:101D2400134442F8045B9342FBD10CF003042CB13E
:101D3400CAB21C4403F8012B9C42FBD130BD64465B
:101D44001346002CF4D1F9E703461446BFE71A46BC
:101D5400A446E0E7024B13B1024800F005B870470F
:101D640000000000791D0008002301461A461846A9
:101D740000F01AB838B5084B084D5B1B9C1007D00F
:101D8400043B1D44013C55F804399847002CF9D113
:101D9400BDE8384000F054B88C1E0008881E0008C6
:101DA400704700BF704700BF2DE9F047DFF87CA003
:101DB4000646DAF8000098460F469146FFF7F0FF12
:101DC4001B4B1B68D3F8484124B365681F2D26DCE0
:101DD4005EB96B1C0235DAF80000636044F82570C4
:101DE400FFF7E0FF0020BDE8F087012304EB850145
:101DF400C1F88890D4F88821AB401A43022EC4F865
:101E04008821C1F80881E4D1D4F88C211343C4F8A3
:101E14008C31DEE703F5A674C3F84841D5E7DAF858
:101E24000000FFF7BFFF4FF0FF30DCE7380400206D
:101E34007C1E0008F8B500BFF8BC08BC9E4670477D
:0C1E4400F8B500BFF8BC08BC9E46704713
:101E500002030405060708090A0B0C0D0E0F1010EB
:101E60000000000000000000000000000102030468
:101E7000060708090000000001020304100000200A
:081E8000591D000809020008C9
:041E8800E501000868
:101E8C0001000000100000000024F400000000001D
:101E9C0000000000FC02002064030020CC030020A2
:101EAC000000000000000000000000000000000026
:101EBC000000000000000000000000000000000016
:101ECC000000000000000000000000000000000006
:101EDC0000000000000000000000000000000000F6
:101EEC0000000000000000000000000000000000E6
:101EFC0000000000000000000000000000000000D6
:101F0C0000000000000000000000000000000000C5
:101F1C0000000000000000000000000000000000B5
:101F2C0000000000000000000000000000000000A5
:101F3C000000000000000000010000000000000094
:101F4C000E33CDAB34126DE6ECDE05000B00000059
:101F5C000000000000000000000000000000000075
:101F6C000000000000000000000000000000000065
:101F7C000000000000000000000000000000000055
:101F8C000000000000000000000000000000000045
:0C22BC0000000000000000006005002091
:0400000508001C21B2
:00000001FF
