:020000040800F2
:1000000000C0002049230008D5220008D72200089C
:10001000D9220008DB220008DD22000800000000D1
:10002000000000000000000000000000DF220008C7
:10003000E122000800000000E3220008E522000899
:1000400091230008912300089123000891230008C0
:1000500091230008912300089123000891230008B0
:10006000912300089123000891230008ED22000845
:100070009123000891230008912300089123000890
:100080009123000891230008912300089123000880
:100090009123000891230008912300089123000870
:1000A0009123000891230008912300089123000860
:1000B0009123000891230008912300089123000850
:1000C0009123000891230008912300089123000840
:1000D0009123000891230008912300089123000830
:1000E0009123000891230008912300089123000820
:1000F0009123000891230008912300089123000810
:1001000091230008912300089123000891230008FF
:1001100091230008912300089123000891230008EF
:1001200091230008912300089123000891230008DF
:1001300000000000000000000000000000000000BF
:1001400000000000000000000000000000000000AF
:10015000000000000000000000000000000000009F
:10016000000000000000000000000000000000008F
:10017000000000000000000000000000000000007F
:10018000000000000000000000000000000000006F
:10019000000000000000000000000000000000005F
:1001A000000000000000000000000000000000004F
:1001B000000000000000000000000000000000003F
:1001C000000000000000000000000000000000002F
:1001D000000000000000000000000000000000001F
:0401E0005FF8E0F1F3
:1001E40010B5054C237833B9044B13B10448AFF36D
:1001F40000800123237010BD3C0400200000000097
:100204006025000808B5034B1BB103490348AFF34D
:10021400008008BD000000004004002060250008A4
:1002240010B504460E4B18784FF47A73B3FBF0F311
:100234000C4A1068B0FBF3F000F07CFB68B90F2C9B
:1002440001D901200AE0002221464FF0FF3000F0DE
:100254002BFB054B1C60002000E0012010BD00BFFB
:1002640000000020080000200400002008B5074A10
:10027400136843F010031360032000F003FB002015
:10028400FFF7CEFF01F0C2FE002008BD00200240AF
:10029400034A1168034B1B780B441360704700BF7B
:1002A4005804002000000020014B1868704700BF6C
:1002B40058040020704708B5436A9A6A12F0500F38
:1002C4001ED19A6A42F400729A621A68926802F421
:1002D4006022B2F5602F03D01846FFF7EBFF08BD8C
:1002E4001A7B002AF8D19A6A22F480729A629A6A76
:1002F40012F4805FF0D19A6A42F001029A62EBE74D
:100304001B6A1B6B9847EAE7704708B5406AFFF71A
:10031400FBFF08BD704708B5406A836A43F0400399
:100324008362C36A43F00403C362FFF7F3FF08BDAB
:1003340030B482B00022019290F82420012A00F007
:1003440091800346012280F824204A68062A2DD889
:100354000468606B02EB8202053A4FF01F0C0CFA42
:1003640002FC20EA0C000D6805FA02F20243626303
:100374000A68092A3AD91C68E06802EB42021E3A6C
:100384004FF0070C0CFA02FC20EA0C008D6805FA09
:1003940002F20243E2600A68103A012A36D90020C8
:1003A400002283F8242002B030BC70470C2A0ED8F7
:1003B4000568286B02EB8202233A1F24944020EA4A
:1003C40004000C6804FA02F202432A63D0E70568C9
:1003D400E86A02EB8202413A1F24944020EA0400B6
:1003E4000C6804FA02F20243EA62C1E71C6820695D
:1003F40002EB42024FF0070C0CFA02FC20EA0C005C
:100404008D6805FA02F202432261C4E71A681648AD
:10041400824205D09A6A42F020029A620120BFE724
:10042400906810F4000F1BD1906840F400009060B5
:100434000A68102A01D00020B2E70C4A12680C495D
:10044400A1FB0212920C02EB82025200019202E022
:10045400019A013A0192019A002AF9D100209FE7FA
:1004640000209DE702209EE70024014008000020B0
:1004740083DE1B4330B583B00023019303689A687D
:1004840012F0010F2ED104469A6842F001029A60DC
:10049400164B1B68164AA2FB03239B0C019302E034
:1004A400019B013B0193019B002BF9D1FFF7FCFE5B
:1004B400054623689B6813F0010F11D1FFF7F4FE82
:1004C400431B022BF5D9A36A43F01003A362E36A2A
:1004D40043F00103E362002384F82430012002E0A6
:1004E400002000E0002003B030BD00BF0800002061
:1004F40083DE1B43F8B504460D461646016844489E
:10050400814259D0434B994256D094F82430012B60
:100514007CD0012384F824302046FFF7ABFF074644
:1005240000286ED1A16A21F4706121F0010141F427
:100534008071A1622268374B9A4244D0A36A23F4A3
:100544008013A362536813F4806F05D0A36A23F465
:10055400405343F48053A362A36A13F4805F48D0EA
:10056400E36A23F00603E362002384F82430236A59
:10057400294A9A62236A294ADA62236A284A1A6350
:1005840023686FF002021A602268936843F4807350
:100594009360216833462A464C31206A00F040FAC1
:1005A40023689A6802F46022B2F5602F24D09A6816
:1005B40042F480129A6027E0154B5B6813F4702FA5
:1005C400A3D0012720E0A3F580635B6813F4702FA8
:1005D400B4D0A36A43F48013A3620D4B5B6813F495
:1005E400806FB9D0A36A23F4405343F48053A362C9
:1005F400B2E70023E362B7E79A6842F4A0029A6084
:1006040002E0002384F824303846F8BD0227FBE7D3
:100614000024014000280140BB0200080F03000829
:100624001B03000838B503689A6812F0010F01D162
:10063400002038BD04469A6822F001029A60FFF750
:1006440033FE054623689B6813F0010F0ED0FFF7B5
:100654002BFE431B022BF5D9A36A43F01003A362BC
:10066400E36A43F00103E3620120E2E70020E0E7EC
:10067400002800F0888070B50446836A002B52D0AD
:100684002046FFF7CFFFA36A13F0100375D10028AB
:1006940073D1A26A22F4885222F0020242F00202CA
:1006A400A2626268266839498E4242D0E1690A43EF
:1006B400217B42EA4102A568B5F5807F02D0012D75
:1006C4003ED01D4694F814C0BCF1010F3BD07168B4
:1006D40021F46941294371602568AE682C49314091
:1006E4001143A960A168B1F5807F01D0012902D12D
:1006F4002369013B1B052568E96A21F470010B435A
:10070400EB6223689968234B0B409A422CD0A36A6E
:1007140023F0120343F01003A362E36A43F00103DE
:10072400E36201202EE0C36280F8243001F090FCE3
:10073400A6E7E169B1F5402FB9D14FF40021B6E73E
:100744004FF48075BEE731B9A169013945EA4131F9
:1007540041F40065BBE7A16A41F02001A162E16AAE
:1007640041F00101E162B2E70023E362A36A23F0EE
:10077400030343F00103A36204E0A36A43F01003FC
:10078400A362012070BD0120704700BF003C0140FE
:10079400FDF7E1FFFE0E1FFF70B582B00023019349
:1007A40090F82430012B68D00446012380F82430CB
:1007B400FFF738FF054628B1002384F82430284683
:1007C40002B070BDA36A23F4885323F0020343F0FC
:1007D4000203A3622A4B1E68022001F049F8B6FB0B
:1007E400F0F67600019602E0019B013B0193019B28
:1007F400002BF9D12046FFF73DFE2268936843F0B1
:1008040008039360FFF750FD064623689A6812F0C8
:10081400080F0FD0FFF748FD801B0A28F5D9A36AFB
:1008240023F0120343F01003A362002384F824305E
:100834000125C4E79A6842F004029A60FFF734FD88
:10084400064623689B6813F0040F0FD0FFF72CFDB6
:10085400801B0A28F5D9A36A23F0120343F010037E
:10086400A362002384F824300125A8E7A36A23F0B7
:10087400030343F00103A3629EE702259FE700BF41
:1008840008000020074AD36823F4E0631B041B0C10
:10089400000200F4E060034343F0BF6343F4003319
:1008A400D360704700ED00E000B5194BDB68C3F37B
:1008B4000223C3F1070CBCF1040F28BF4FF0040C52
:1008C40003F1040EBEF1060F18D9033B4FF0FF3EAF
:1008D4000EFA0CFC21EA0C0199400EFA03F322EA09
:1008E4000303194300280BDB0901C9B200F160407E
:1008F40000F5614080F800135DF804FB0023E5E790
:1009040000F00F000901C9B2024B1954F4E700BF0B
:1009140000ED00E014ED00E0002807DB00F01F020A
:10092400400901239340024A42F82030704700BF37
:1009340000E100E00138B0F1807F0BD24FF0E023FA
:100944005861054AF02182F823100020986107229B
:100954001A6170470120704700ED00E030B40124B3
:10096400056CAC40C56B6C60046863604368102B15
:1009740005D0036899600368DA6030BC7047036887
:100984009A600368D960F8E700283AD010B40246A8
:1009940000681D4B984229D81C4B03441C49A1FBF9
:1009A40003131B099B0013641A4BD363022382F8BD
:1009B4002130016821F47F5121F03001536894689B
:1009C4002343D46823431469234354692343946918
:1009D4002343D46923430B43036000209063012322
:1009E40082F8213082F8200010BC70470A4B03447F
:1009F4000749A1FB03131B099B001364074BD36333
:100A0400D4E70120704700BF07040240F8FFFDBF90
:100A1400CDCCCCCC00000240F8FBFDBF000402406A
:100A240038B5044690F82000012831D0012084F81C
:100A3400200094F82100012804D0002384F82030F9
:100A4400022038BD022084F821000020A06325681C
:100A5400286820F0010028602046FFF77FFFE36A42
:100A64005BB12268136843F00E03136022681368B5
:100A740043F0010313600020E3E72268136823F0C6
:100A8400040313602268136843F00A031360EDE75C
:100A94000220D6E738B5C36B1A6804682568016C70
:100AA40004238B40134200F09B8015F0040F00F0E8
:100AB4009780236813F0200F03D1236823F00403E5
:100AC400236003689A4A934246D9783A934224D0E1
:100AD4001432934228D01432934227D014329342D2
:100AE40027D01432934227D01432934227D01432A1
:100AF400934227D002F56272934226D01432934275
:100B040025D01432934224D01432934202D04FF4AD
:100B1400802203E04FF4804200E00422854B5A60B7
:100B2400C36A03B1984738BD4022F7E74FF48062A7
:100B3400F4E74FF48042F1E74FF48022EEE74FF4FC
:100B44008002EBE74FF08062E8E70422E6E7402208
:100B5400E4E74FF48062E1E7774A934224D0143209
:100B6400934225D01432934224D01432934224D099
:100B74001432934224D01432934224D01432934238
:100B840024D002F56272934223D01432934222D0CD
:100B94001432934221D01432934202D04FF4802273
:100BA40003E04FF4804200E00422644B5A60B7E74C
:100BB4004022FAE74FF48062F7E74FF48042F4E70B
:100BC4004FF48022F1E74FF48002EEE74FF08062A9
:100BD400EBE70422E9E74022E7E74FF48062E4E729
:100BE40002238B40134200F0AB8015F0020F00F09B
:100BF400A780236813F0200F06D1236823F00A038B
:100C04002360012380F821300368494A93424BD979
:100C1400783A934224D0143293422DD01432934222
:100C24002CD0143293422CD0143293422CD0143250
:100C340093422CD0143293422CD002F56272934228
:100C44002BD0143293422AD01432934229D0143236
:100C5400934202D04FF4003203E04FF4005200E01C
:100C64000222344B5A60002380F82030836A002B20
:100C74003FF459AF984756E72022F2E74FF4007249
:100C8400EFE74FF40052ECE74FF40032E9E74FF49A
:100C94000012E6E74FF00072E3E70222E1E72022C8
:100CA400DFE74FF40072DCE7234A934224D0143286
:100CB400934225D01432934224D01432934224D048
:100CC4001432934224D01432934224D014329342E7
:100CD40024D002F56272934223D01432934222D07C
:100CE4001432934221D01432934202D04FF4003292
:100CF40003E04FF4005200E00222104B5A60B2E7C6
:100D04002022FAE74FF40072F7E74FF40052F4E7B9
:100D14004FF40032F1E74FF40012EEE74FF00072A7
:100D2400EBE70222E9E72022E7E74FF40072E4E769
:100D3400800002400004024008000240000002401B
:100D4400082303FA01F111423FF4EDAE15F0080F48
:100D54003FF4E9AE236823F00E032360026CC16BF9
:100D6400012303FA02F24A60836380F821300023EE
:100D740080F82030036B002B3FF4D5AE9847D2E6C1
:100D840070B582B00024A446B0E0874DAA4210D0CA
:100D940007D9864DAA420CD005F58035AA4208D061
:100DA40013E0A5F58015AA4203D005F57025AA42E3
:100DB40007D18A68002A62D0012A5BD043610824E3
:100DC40003E0A5F58015AA42F3D0BEF1FF0F58D871
:100DD4000646BEF1FF0F56D84FEA8C0233680F2542
:100DE400954023EA050304FA02F2134333604B6887
:100DF40013F0805F78D06E4B9A6942F001029A61D9
:100E04009B6903F001030193019B4FEA9C02951C2B
:100E1400684B53F825600CF003039D000F23AB408F
:100E240026EA0306644B984233D003F58063984264
:100E340000F0988003F58063984200F0958003F5F4
:100E44008063984200F0928003F58063984200F03A
:100E54008F8003F58063984219D006231AE0CC688A
:100E6400B3E7CC680434B0E7CC680834ADE7CC68A9
:100E74000C34AAE703610824A7E70024A5E70424A7
:100E8400A3E7061DA5E7ACF108029200A6E7052337
:100E940000E00023AB4033430232464D45F8223094
:100EA4004B6813F4803F65D0444A136843EA0E0349
:100EB40013604B6813F4003F62D0404A536843EA1E
:100EC4000E0353604B6813F4801F5FD03B4A936852
:100ED40043EA0E0393604B6813F4001F5CD0374A57
:100EE400D36843EA0E03D3600CF1010C0A6832FAAA
:100EF4000CF357D0012303FA0CF302EA030E33EA8E
:100F04000202F1D14A68122A3FF63FAF122A3FF695
:100F14005CAF01A555F822F0B70D0008630E000878
:100F24006D0E00087F0E0008CF0D0008CF0D0008DD
:100F3400CF0D0008CF0D0008CF0D0008CF0D00081D
:100F4400CF0D0008CF0D0008CF0D0008CF0D00080D
:100F5400CF0D0008CF0D0008CF0D0008670E000864
:100F6400730E0008012395E7022393E7032391E717
:100F740004238FE7114A136823EA0E03136098E7EA
:100F84000E4A536823EA0E0353609BE70B4A9368A7
:100F940023EA0E0393609EE7084AD36823EA0E030C
:100FA400D360A1E702B070BD000022100000311030
:100FB400001002400000014000080140000401400C
:100FC4000AB101617047090401617047002800F00B
:100FD4008A8038B5044690F83530002B54D002226C
:100FE40084F835202168CB6923F47B6323F00F0355
:100FF400CB6123681A62636993426CD0E368002B67
:1010040047D11025A368202B00D86D002368374AE8
:10101400934240D0364A934241D000F08BFA236980
:10102400B3F5007F3FD0B0FBF5F000EB8000430048
:101034006069B3FBF0F305332E4AA2FB0323C3F329
:10104400C002C2EBD3035B0811029A1EFD2A44D8E6
:1010540022690A43216813430B622168CB6923F494
:101064007B6323F00F036268A0680243E0680243D5
:10107400A0690243134343F40063CB610020A063DF
:10108400012384F8353038BD80F8343001F050F84D
:10109400A5E72025B6E7042000F0EAFBBFE7082017
:1010A40000F0E6FBBBE7E36853B1AD00B0FBF5F03D
:1010B40000EB800043006069B3FBF0F30533BBE74A
:1010C400ED00B0FBF5F000EB800043006069B3FB7A
:1010D400F0F30533B0E70021B7E7A36B43F0100347
:1010E400A3630120CFE70120704700BF0038004010
:1010F400003C0040CDCCCCCC82B0084B1B68084AE5
:10110400A2FB03235B0A00FB03F3019300BF019BD3
:101114005A1E0192002BF9D102B07047080000203A
:10112400D34D6210002800F0F18170B582B00446FE
:10113400036813F0010F2CD0994B5B6803F00C0388
:10114400042B1DD0964B5B6803F00C03082B12D0C4
:101154006368B3F5803F41D0002B55D103F1804340
:1011640003F504331A6822F480321A601A6822F4F0
:1011740080221A6037E08A4B5B6813F4803FE7D023
:10118400874B1B6813F4003F03D06368002B00F007
:10119400BF81236813F0020F75D0814B5B6813F095
:1011A4000C0F5FD07E4B5B6803F00C03082B54D00C
:1011B4002369002B00F08A807A4B01221A60FFF722
:1011C40073F80546764B1B6813F0020F75D1FFF7D1
:1011D4006BF8401B0228F5D903209EE1704A13687E
:1011E40043F480331360636843B3FFF75DF8054647
:1011F4006B4B1B6813F4003FCBD1FFF755F8401B32
:101204006428F5D9032088E1B3F5A02F09D0644BF5
:101214001A6822F480321A601A6822F480221A6052
:10122400E1E703F18043A3F53C331A6842F48022DA
:101234001A601A6842F480321A60D4E7FFF734F86F
:101244000546574B1B6813F4003FA2D0FFF72CF858
:10125400401B6428F5D903205FE1514B5B6813F40C
:10126400803FA5D14E4B1B6813F0020F03D02369B6
:10127400012B40F04F814A4A136823F0F803616957
:1012840043EAC1031360236813F0080F33D0A36942
:10129400002B5CD0434B0122C3F88024FFF704F8F1
:1012A40005463F4B5B6A13F0020F21D1FEF7FCFFAA
:1012B400401B0228F5D903202FE1394A136823F093
:1012C400F803616943EAC1031360DCE7354B00228C
:1012D4001A60FEF7E9FF0546314B1B6813F0020F55
:1012E400D1D0FEF7E1FF401B0228F5D9032014E119
:1012F4000120FFF701FF236813F0040F00F096802C
:10130400274BDB6913F0805F34D1254BDA6942F057
:101314008052DA61DB6903F080530193019B01255C
:10132400214B1B6813F4807F26D0E368012B3DD04A
:10133400002B53D103F1804303F504331A6A22F0DE
:1013440001021A621A6A22F004021A6233E0154B8F
:101354000022C3F88024FEF7A7FF0546104B5B6A02
:1013640013F0020FC7D0FEF79FFF401B0228F5D9E8
:101374000320D2E00025D3E70B4A136843F48073BB
:101384001360FEF791FF0646074B1B6813F4807F3A
:10139400CBD1FEF789FF801B6428F5D90320BCE07C
:1013A4000010024000004242007000405F4A136A8D
:1013B40043F001031362E36833B3FEF775FF064697
:1013C4005A4B1B6A13F0020F2FD1FEF76DFF801BDF
:1013D40041F288339842F3D903209EE0052B09D0CB
:1013E400524B1A6A22F001021A621A6A22F00402AB
:1013F4001A62E0E74D4B1A6A42F004021A621A6A52
:1014040042F001021A62D6E7FEF74EFF0646474B4A
:101414001B6A13F0020F08D0FEF746FF801B41F24F
:1014240088339842F3D9032077E0E5B9E369002BC8
:1014340072D03E4A526802F00C02082A56D0022B9F
:1014440017D03B4B00221A66FEF72EFF0446374B9B
:101454001B6813F0007F47D0FEF726FF001B02280D
:10146400F5D9032059E0314AD36923F08053D3617D
:10147400DCE72F4B00221A66FEF716FF05462B4BBE
:101484001B6813F0007F06D0FEF70EFF401B0228F6
:10149400F5D9032041E0236AB3F5803F1AD02349EC
:1014A4004B6823F47413226A606A024313434B604B
:1014B4001F4B01221A66FEF7F7FE04461B4B1B68FE
:1014C40013F0007F0ED1FEF7EFFE001B0228F5D9C2
:1014D400032022E0154A536823F40033A1680B4328
:1014E4005360DCE7002018E0002016E0012B16D042
:1014F4000E4B5B6803F48031226A914211D103F4EC
:101504007013626A93420ED1002006E001207047F6
:10151400012002E0012000E0002002B070BD0120A3
:10152400FBE70120F9E70120F7E700BF00100240C4
:101534000000424286B0164B0FCB0DF1180C0CE99B
:101544000F0040F20123ADF80430124B5B6803F046
:101554000C02082A02D0104806B07047C3F3834235
:10156400624412F8100C13F4803F0CD0094B5B68F2
:10157400C3F34043634413F8143C074A02FB00F0EE
:10158400B0FBF3F0E8E7054B03FB00F0E4E700BF32
:10159400782500080010024000127A0000093D007E
:1015A400002800F0A08070B50D460446524B1B681D
:1015B40003F007038B420BD24F4A136823F007034F
:1015C4000B431360136803F007038B4240F08D80D4
:1015D400236813F0020F17D013F0040F04D0474A06
:1015E400536843F4E0635360236813F0080F04D096
:1015F400424A536843F460535360404A536823F0AB
:10160400F003A1680B435360236813F0010F31D03A
:101614006368012B20D0022B25D0384A126812F0BF
:10162400020F64D035494A6822F0030213434B6029
:10163400FEF73AFE0646314B5B6803F00C03626822
:10164400B3EB820F16D0FEF72FFE801B41F28833D6
:101654009842F0D9032045E0284A126812F4003F6A
:10166400E0D101203EE0254A126812F0007FD9D172
:10167400012037E0204B1B6803F00703AB420AD973
:101684001D4A136823F007032B431360136803F008
:101694000703AB422DD1236813F0040F06D0174A79
:1016A400536823F4E063E1680B435360236813F049
:1016B400080F07D0114A536823F46053216943EAA1
:1016C400C1035360FFF736FF0C4B5B68C3F303138E
:1016D4000B4AD35CD8400B4B18600B4B1868FEF7D1
:1016E4009FFD002070BD012070470120FAE7012012
:1016F400F8E70120F6E700BF002002400010024096
:101704008C2500080800002004000020014B186804
:10171400704700BF0800002008B5FFF7F7FF044B2F
:101724005B68C3F30223034AD35CD84008BD00BFFF
:10173400001002409C25000808B5FFF7E7FF044BA2
:101744005B68C3F3C223034AD35CD84008BD00BF1F
:10175400001002409C25000870B582B0044603685E
:1017640013F0010F36D03F4BDB6913F0805F49D192
:101774003C4BDA6942F08052DA61DB6903F0805352
:101784000193019B0125384B1B6813F4807F3BD0E8
:10179400344B1B6A13F4407313D0626802F4407232
:1017A4009A420ED02F4A136A23F440702F4901261F
:1017B400C1F840640026C1F84064106213F0010FC0
:1017C40036D1284A136A23F4407361680B431362C9
:1017D400002D3ED1236813F0020F06D0214A53682E
:1017E40023F44043A1680B435360236813F0100FA4
:1017F40034D01C4A536823F4800361690B4353605B
:1018040000202CE00025BEE7174A136843F48073D8
:101814001360FEF749FD0646134B1B6813F4807FE3
:10182400B6D1FEF741FD801B6428F5D9032016E0EC
:10183400FEF73AFD06460B4B1B6A13F0020FC0D1AC
:10184400FEF732FD801B41F288339842F3D903201E
:1018540005E0D36923F08053D361BBE7002002B0D5
:1018640070BD00BF00100240007000400000424202
:1018740000B587B084463E4B0FCB0DF1180E0EE930
:101884000F0040F20123ADF804300CF1FF300F28B3
:1018940066D8DFE800F0385A6532656565356565F8
:1018A400656565656508334B5A68186810F0807083
:1018B40057D0C2F3834306A90B4413F8100C12F457
:1018C400803F16D02B4B5B68C3F340430B4413F8A3
:1018D400142C294BB3FBF2F303FB00F0254B5B689C
:1018E40013F4800F3DD14000244BA3FB003040088B
:1018F40037E0234B03FB00F0F0E7FFF71BFE30E07B
:10190400FFF718FE2DE01B4B1B6A40F202321A400F
:10191400B2F5817F28D003F44073B3F5007F04D07F
:10192400B3F5407F09D000201BE0124A526A12F03E
:10193400020FF5D049F6404013E00E4B186810F43E
:1019440000300ED04FF224400BE0FFF7F5FE094BB8
:101954005B68C3F3813301335B00B0FBF3F000E059
:10196400002007B05DF804FB4FF40040F9E700BF26
:10197400782500080010024000127A00ABAAAAAA37
:1019840000093D00002839D010B5044600238362C5
:1019940090F85130002B2CD0022384F85130226867
:1019A400136823F0400313606368A2681343E2687A
:1019B40013432269134362691343A26902F4007258
:1019C4001343E2691343226A1343A16A22680B4357
:1019D4001360638B226803F0040353602268D369A5
:1019E40023F40063D36100206065012384F851303F
:1019F40010BD80F8503000F0DFFBCDE701207047C8
:101A04000268D36843F00103D3600268936803F06B
:101A14000703062B03D0136843F00103136000206F
:101A2400704700000368244A904212D002F5006215
:101A340090420ED0B0F1804F0BD0A2F59832904274
:101A440007D002F58062904203D002F58062904292
:101A540003D123F070034A681343174A904212D00B
:101A640002F5006290420ED0B0F1804F0BD0A2F587
:101A74009832904207D002F58062904203D002F57A
:101A84008062904203D123F44073CA68134323F065
:101A940080034A69134303608B68C3620B688362E3
:101AA400054B984203D003F50063984201D10B69BA
:101AB4000363012343617047002C0140B0B110B5AA
:101AC400044690F83D3063B1022384F83D3021464A
:101AD40051F8040BFFF7A6FF012384F83D300020E2
:101AE40010BD80F83C3000F0A1FBEDE70120704709
:101AF40090F83C30012B1DD030B54FF0010E80F82A
:101B04003CE0022380F83D3002685468936824F076
:101B140070040D682C4323F0800C4B6843EA0C03DB
:101B240054600268936080F83DE0002380F83C3004
:101B3400184630BD0220704738B504460268136960
:101B440023F44053C1680B43136183680269134350
:101B540042691A430168CB6823F4B05323F00C03A1
:101B64001343CB600268536923F4407381690B43C8
:101B740053610268214B9A421FD0FFF7CDFD00EB61
:101B8400800202EB820263689B00B2FBF3F21C4802
:101B9400A0FB02314909642303FB11231B013233E7
:101BA400A0FB03235B0903F0F00202EB011203F034
:101BB4000F03216813448B6038BDFFF7BDFD00EBB4
:101BC400800000EB800063689B00B0FBF3F00C4DD9
:101BD400A5FB00325109642303FB11031B013233BB
:101BE400A5FB03235B0903F0F00202EB011203F0EF
:101BF4000F03216813448B60DEE700BF0038014007
:101C04001F85EB5158B310B5044690F839300BB327
:101C1400242384F839302268D36823F40053D36032
:101C24002046FFF789FF2268136923F49043136168
:101C34002268536923F02A0353612268D36843F46A
:101C44000053D3600020E063202384F8393084F803
:101C54003A3010BD80F8383000F0FEFAD8E70120A1
:101C6400704700002DE9F04188B0002404940594E5
:101C740006940794324B9A6942F020029A619A6959
:101C840002F020020092009A9A6942F010029A61CE
:101C94009A6902F010020192019A9A6942F00402D0
:101CA4009A619A6902F004020292029A9A6942F0D5
:101CB40008029A619B6903F008030393039BDFF80E
:101CC4008480224640F29F314046FFF779F91E4D49
:101CD400224603212846FFF773F940F29F33049309
:101CE4000127059706940226079604A94046FFF7A4
:101CF40047F80323049305970694079604A92846F6
:101D0400FFF73EF84FF4E05304930594069404A9B6
:101D14002846FFF735F8042304930594069404A990
:101D24000A48FFF72DF84FF478730493059406944A
:101D340004A90748FFF724F808B0BDE8F08100BF04
:101D4400001002400010014000080140001401404E
:101D5400000C014000B583B00A4B5A6942F00102FD
:101D64005A615B6903F001030193019B0022114650
:101D74000B20FEF799FD0B20FEF7CEFD03B05DF8B6
:101D840004FB00BF0010024070B584B0002501952B
:101D9400029503950C4C0D4B2360A5600126267318
:101DA40025754FF46023E361656026612046FEF7E4
:101DB4005FFC082301930296039501A92046FEF7D0
:101DC400B7FA04B070BD00BF5C04002000240140D9
:101DD40008B50848084B03604FF4007242600023C2
:101DE4008360C36002614BF6803242618361FFF716
:101DF400EDF808BDD00400200038004008B50C48B8
:101E04000C4B03604FF48273436000238360C36010
:101E1400036143614FF4007282613022C261036244
:101E2400436283620A23C362FFF7ACFD08BD00BFAF
:101E34000C0500200030014008B50848084B036039
:101E44004FF4E133436000238360C36003610C22D9
:101E540042618361C361FFF7D5FE08BDA40500207C
:101E6400004C004030B583B0002400940194094D27
:101E7400094B2B606C60AC60EC60AC612846FFF7EA
:101E84001DFE0094019469462846FFF731FE03B015
:101E940030BD00BF640500200010004030B597B08D
:101EA400282200210CA800F097FA00240794089433
:101EB40009940A940B940194029403940494059451
:101EC400069401220C924FF480330D931092022554
:101ED400139514934FF4E01315930CA8FFF722F90C
:101EE4000F230793089509944FF480630A930B9486
:101EF400294607A8FFF754FB062301934FF4004338
:101F04000393049401A8FFF727FC17B030BD000029
:101F140008B5FEF7ABF9FFF7C1FFFFF7A3FEFFF724
:101F240019FFFFF731FFFFF753FFFFF767FFFFF7D5
:101F340083FFFFF797FF2C48FFF762FD2B4C2046E9
:101F4400FEF72AFC04222A492046FEF7D3FA1AE0B7
:101F5400002204212748FFF733F829E00022022158
:101F64002448FFF72DF82DE0002201212148FFF736
:101F740027F8214B1B88B3F5FA6F2ED901220821CB
:101F84001C48FFF71DF81A4BD9881C4A1180998800
:101F94001B4A11805A881B490A801988164B1980DC
:101FA400B2F5FA6FD4D9012204211248FFF708F8D8
:101FB400134B1B88B3F5FA6FD0D9012202210D48C7
:101FC400FEF7FEFF0D4B1B88B3F5FA6FCCD9012247
:101FD40011460848FEF7F4FFCBE700220821054824
:101FE400FEF7EEFFCFE700BF640500205C0400208D
:101FF400EC05002000100140EA050020E405002063
:10200400E6050020E80500207047000082B00E4B72
:102014009A6942F001029A619A6902F001020092FF
:10202400009ADA6942F08052DA61DB6903F0805386
:102034000193019B054A536823F0E06343F0007366
:10204400536002B0704700BF00100240000001401E
:1020540070B588B000230493059306930793026830
:102064002D4B9A4201D008B070BD044603F56C4371
:102074009A6942F400729A619A6902F400720092B9
:10208400009A9A6942F004029A619A6902F0040281
:102094000192019A9A6942F010029A619A6902F0D7
:1020A40010020292029A9A6942F008029A619B69AC
:1020B40003F008030393039B10230493032505955E
:1020C4000DEB03011548FEF75BFE202604960595EB
:1020D40004A91348FEF754FE0495059504A9114874
:1020E400FEF74EFE1048114B0360002343608360EB
:1020F4008022C2604FF4807202614FF480624261B8
:102104008661C361FEF740FC18B9074B23625C6229
:10211400A9E7FFF779FFF8E7002401400008014030
:1021240000100140000C01408C0400200800024013
:1021340010B588B0002304930593069307930268AF
:102144001A4B9A4201D008B010BD03F5EC33DA699A
:1021540042F48042DA61DA6902F480420192019A1F
:102164009A6942F008029A619A6902F0080202929E
:10217400029A9A6942F010029A619B6903F0100373
:102184000393039B4FF43043049302240594079470
:1021940004A90748FEF7F4FD40230493059407942B
:1021A40004A90448FEF7ECFDCDE700BF0038004069
:1021B400000C01400010014010B586B000230293CA
:1021C4000393049305930268164B9A4201D006B018
:1021D40010BD03F560439A6942F480529A619A698A
:1021E40002F480520092009A9A6942F004029A61C1
:1021F4009B6903F004030193019BA0230293022330
:10220400039303230593084C02A92046FEF7B8FD67
:102214004023029300230393049302A92046FEF76C
:10222400AFFDD4E700300140000801400268094BCB
:102234009A4200D0704782B003F50033DA6942F065
:102244001002DA61DB6903F010030193019B02B011
:10225400704700BF0010004010B586B00023029301
:102264000393049305930268174B9A4201D006B076
:1022740010BD03F5E233DA6942F40022DA61DA6967
:1022840002F400220092009A9A6942F010029A61C4
:102294009B6903F010030193019B4FF48063029345
:1022A4000223039303230593084C02A92046FEF757
:1022B40067FD4FF40063029300230393049302A980
:1022C4002046FEF75DFDD2E7004C004000100140BF
:1022D4007047FEE7FEE7FEE7FEE77047704770478A
:1022E40008B5FDF7D5FF08BD08B50248FEF7D2FBD7
:1022F40008BD00BF8C0400200F4B1A6842F0010295
:102304001A6059680D4A0A405A601A6822F08472A9
:1023140022F480321A601A6822F480221A605A6801
:1023240022F4FE025A604FF41F029A60044B4FF0ED
:1023340000629A60704700BF001002400000FFF87E
:1023440000ED00E0002103E00B4B5B5843500431E7
:102354000A480B4B42189A42F6D30A4A02E0002379
:1023640042F8043B084B9A42F9D3FFF7C5FF00F04B
:102374000FF8FFF7CDFD7047B425000800000020DA
:102384003C0400203C040020F8050020FEE7000087
:1023940070B50D4E0D4D761BB61006D0002455F8C1
:1023A400043B01349847A642F9D1094E094D00F087
:1023B400D5F8761BB61006D0002455F8043B01343A
:1023C4009847A642F9D170BDA8250008A8250008A1
:1023D400B0250008A8250008830730B548D0541E4E
:1023E400002A3FD00346CAB201E0013C3AD303F8C5
:1023F400012B9D07F9D1032C2DD9CDB245EA052532
:102404000F2C45EA054536D9A4F1100222F00F0C31
:1024140003F1200EE6444FEA121C03F1100242E9D4
:10242400045542E9025510327245F8D10CF101020B
:1024340014F00C0F03EB021204F00F0C13D0ACF1E8
:10244400040323F003030433134442F8045B93426C
:10245400FBD10CF003042CB1CAB21C4403F8012BC9
:102464009C42FBD130BD64461346002CF4D1F9E7FD
:1024740003461446BFE71A46A446E0E7024B13B1ED
:10248400024800F005B8704700000000A1240008CD
:10249400002301461A46184600F01AB838B5084B0E
:1024A400084D5B1B9C1007D0043B1D44013C55F8B0
:1024B40004399847002CF9D1BDE8384000F054B8ED
:1024C400B4250008B0250008704700BF704700BF5E
:1024D4002DE9F047DFF87CA00646DAF800009846BC
:1024E4000F469146FFF7F0FF1B4B1B68D3F848419A
:1024F40024B365681F2D26DC5EB96B1C0235DAF83F
:102504000000636044F82570FFF7E0FF0020BDE899
:10251400F087012304EB8501C1F88890D4F8882161
:10252400AB401A43022EC4F88821C1F80881E4D1D3
:10253400D4F88C211343C4F88C31DEE703F5A67478
:10254400C3F84841D5E7DAF80000FFF7BFFF4FF0C2
:10255400FF30DCE738040020A4250008F8B500BFEC
:10256400F8BC08BC9E467047F8B500BFF8BC08BC70
:042574009E467047C8
:1025780002030405060708090A0B0C0D0E0F1010BC
:102588000000000000000000000000000102030439
:1025980006070809000000000102030410000020DB
:0825A80081240008090200086B
:0425B000E501000839
:1025B40001000000100000000024F40000000000EE
:1025C40000000000FC02002064030020CC03002073
:1025D40000000000000000000000000000000000F7
:1025E40000000000000000000000000000000000E7
:1025F40000000000000000000000000000000000D7
:1026040000000000000000000000000000000000C6
:1026140000000000000000000000000000000000B6
:1026240000000000000000000000000000000000A6
:102634000000000000000000000000000000000096
:102644000000000000000000000000000000000086
:102654000000000000000000000000000000000076
:102664000000000000000000010000000000000065
:102674000E33CDAB34126DE6ECDE05000B0000002A
:102684000000000000000000000000000000000046
:102694000000000000000000000000000000000036
:1026A4000000000000000000000000000000000026
:1026B4000000000000000000000000000000000016
:0C29E4000000000000000000F4050020CE
:040000050800234983
:00000001FF
